{
  "transactions": [
    {
      "hash": "0x4d6036b76c9b8fe50cd6366c472bee4b64403af6cf40167c175bf4a93d49c094",
      "transactionType": "CALL",
      "contractName": null,
      "contractAddress": "0x0526f93a854c6f5cfeb9fbbfc70d32fc4f46f182",
      "function": "addLiquidity(address,uint128)",
      "arguments": [
        "0xEeeeeEeeeEeEeeEeEeEeeEEEeeeeEeeeeeeeEEeE",
        "1000000000000000000"
      ],
      "transaction": {
        "from": "0xe1f21fe3332f1e42c46d398ff5e4f4941602051e",
        "to": "0x0526f93a854c6f5cfeb9fbbfc70d32fc4f46f182",
        "gas": "0x11d9a",
        "value": "0xde0b6b3a7640000",
        "input": "0xdbd7ede0000000000000000000000000eeeeeeeeeeeeeeeeeeeeeeeeeeeeeeeeeeeeeeee0000000000000000000000000000000000000000000000000de0b6b3a7640000",
        "nonce": "0x12",
        "chainId": "0xaa36a7"
      },
      "additionalContracts": [],
      "isFixedGasLimit": false
    }
  ],
  "receipts": [
    {
      "status": "0x1",
      "cumulativeGasUsed": "0xb54c26",
      "logs": [
        {
          "address": "0x0526f93a854c6f5cfeb9fbbfc70d32fc4f46f182",
          "topics": [
            "0xeb6f59288405a42e371d6ea5d2876f36687865f4505aaa7e58aee1bf4d094418"
          ],
          "data": "0x000000000000000000000000eeeeeeeeeeeeeeeeeeeeeeeeeeeeeeeeeeeeeeee0000000000000000000000000000000000000000000000000de0b6b3a7640000",
          "blockHash": "0x5a4b6e4e92a1ca05c08a0537355ef8704577ffd73aa18a51f8f507db19cabc30",
          "blockNumber": "0x6f471d",
          "transactionHash": "0x4d6036b76c9b8fe50cd6366c472bee4b64403af6cf40167c175bf4a93d49c094",
          "transactionIndex": "0x6b",
          "logIndex": "0xd1",
          "removed": false
        }
      ],
      "logsBloom": "0x00000000000000000000000000000000000000000000000000000000000000000000000000000000000000000000000000000000000000000000000000000000000000400000000000000000000000000080000000000000000000000000000000000000008000000000000000000000000000000000000000000000000000000000000000000000000000000000000000000000000000000000000000000000000000000000000000000000000000000000000000000000000000000000000000000000000000000000000000000000000800000000000000000000000000000000000000000000000000000000000000020000000010000000000000000000",
      "type": "0x2",
      "transactionHash": "0x4d6036b76c9b8fe50cd6366c472bee4b64403af6cf40167c175bf4a93d49c094",
      "transactionIndex": "0x6b",
      "blockHash": "0x5a4b6e4e92a1ca05c08a0537355ef8704577ffd73aa18a51f8f507db19cabc30",
      "blockNumber": "0x6f471d",
      "gasUsed": "0xcec6",
      "effectiveGasPrice": "0x22428e764",
      "from": "0xe1f21fe3332f1e42c46d398ff5e4f4941602051e",
      "to": "0x0526f93a854c6f5cfeb9fbbfc70d32fc4f46f182",
      "contractAddress": null
    }
  ],
  "libraries": [],
  "pending": [],
  "returns": {},
  "timestamp": 1734376296,
  "chain": 11155111,
  "commit": "5efe942"
}