{
  "transactions": [
    {
      "hash": "0xc32f2175e4a11976aa3891106f340ff83e43274b284d79304bc6e30b5bfb9c31",
      "transactionType": "CALL",
      "contractName": null,
      "contractAddress": "0x0526f93a854c6f5cfeb9fbbfc70d32fc4f46f182",
      "function": "addLiquidity(address,uint128)",
      "arguments": [
        "0xEeeeeEeeeEeEeeEeEeEeeEEEeeeeEeeeeeeeEEeE",
        "1000000000000000000"
      ],
      "transaction": {
        "from": "0xe1f21fe3332f1e42c46d398ff5e4f4941602051e",
        "to": "0x0526f93a854c6f5cfeb9fbbfc70d32fc4f46f182",
        "gas": "0x13ef2",
        "value": "0xde0b6b3a7640000",
        "input": "0xdbd7ede0000000000000000000000000eeeeeeeeeeeeeeeeeeeeeeeeeeeeeeeeeeeeeeee0000000000000000000000000000000000000000000000000de0b6b3a7640000",
        "nonce": "0xd",
        "chainId": "0x66eee"
      },
      "additionalContracts": [],
      "isFixedGasLimit": false
    }
  ],
  "receipts": [
    {
      "status": "0x1",
      "cumulativeGasUsed": "0x18f2b4",
      "logs": [
        {
          "address": "0x0526f93a854c6f5cfeb9fbbfc70d32fc4f46f182",
          "topics": [
            "0xeb6f59288405a42e371d6ea5d2876f36687865f4505aaa7e58aee1bf4d094418"
          ],
          "data": "0x000000000000000000000000eeeeeeeeeeeeeeeeeeeeeeeeeeeeeeeeeeeeeeee0000000000000000000000000000000000000000000000000de0b6b3a7640000",
          "blockHash": "0xec6b00df17d264902e7436989bc5fd9dbbb62ca76ebec58ad46990aa37dc84e1",
          "blockNumber": "0x66a3ef2",
          "transactionHash": "0xc32f2175e4a11976aa3891106f340ff83e43274b284d79304bc6e30b5bfb9c31",
          "transactionIndex": "0x5",
          "logIndex": "0x9",
          "removed": false
        }
      ],
      "logsBloom": "0x00000000000000000000000000000000000000000000000000000000000000000000000000000000000000000000000000000000000000000000000000000000000000400000000000000000000000000080000000000000000000000000000000000000008000000000000000000000000000000000000000000000000000000000000000000000000000000000000000000000000000000000000000000000000000000000000000000000000000000000000000000000000000000000000000000000000000000000000000000000000800000000000000000000000000000000000000000000000000000000000000020000000010000000000000000000",
      "type": "0x2",
      "transactionHash": "0xc32f2175e4a11976aa3891106f340ff83e43274b284d79304bc6e30b5bfb9c31",
      "transactionIndex": "0x5",
      "blockHash": "0xec6b00df17d264902e7436989bc5fd9dbbb62ca76ebec58ad46990aa37dc84e1",
      "blockNumber": "0x66a3ef2",
      "gasUsed": "0xe2e2",
      "effectiveGasPrice": "0x5f5e100",
      "from": "0xe1f21fe3332f1e42c46d398ff5e4f4941602051e",
      "to": "0x0526f93a854c6f5cfeb9fbbfc70d32fc4f46f182",
      "contractAddress": null,
      "gasUsedForL1": "0x141c",
      "l1BlockNumber": "0x6f471b"
    }
  ],
  "libraries": [],
  "pending": [],
  "returns": {},
  "timestamp": 1734376288,
  "chain": 421614,
  "commit": "5efe942"
}