{
  "transactions": [
    {
      "hash": "0x8912d8d08a095c5715a7f14186814dd1dca2da13f07cf7740d67739183e9f769",
      "transactionType": "CALL",
      "contractName": null,
      "contractAddress": "0x3f4a20335e9045f71411b04e9f53814f5b8d725d",
      "function": "addLiquidity(address,uint128)",
      "arguments": [
        "0xEeeeeEeeeEeEeeEeEeEeeEEEeeeeEeeeeeeeEEeE",
        "5000000000000000000"
      ],
      "transaction": {
        "from": "0xe1f21fe3332f1e42c46d398ff5e4f4941602051e",
        "to": "0x3f4a20335e9045f71411b04e9f53814f5b8d725d",
        "gas": "0x134cf",
        "value": "0x4563918244f40000",
        "input": "0xdbd7ede0000000000000000000000000eeeeeeeeeeeeeeeeeeeeeeeeeeeeeeeeeeeeeeee0000000000000000000000000000000000000000000000004563918244f40000",
        "nonce": "0xa",
        "chainId": "0x66eee"
      },
      "additionalContracts": [],
      "isFixedGasLimit": false
    }
  ],
  "receipts": [
    {
      "status": "0x1",
      "cumulativeGasUsed": "0x3a214",
      "logs": [
        {
          "address": "0x3f4a20335e9045f71411b04e9f53814f5b8d725d",
          "topics": [
            "0xeb6f59288405a42e371d6ea5d2876f36687865f4505aaa7e58aee1bf4d094418"
          ],
          "data": "0x000000000000000000000000eeeeeeeeeeeeeeeeeeeeeeeeeeeeeeeeeeeeeeee0000000000000000000000000000000000000000000000004563918244f40000",
          "blockHash": "0x86b3201a3b6e358ccaf0c28ca123f76beaee18e8d4528f90f6d4e7339bcb9623",
          "blockNumber": "0x5d016f3",
          "transactionHash": "0x8912d8d08a095c5715a7f14186814dd1dca2da13f07cf7740d67739183e9f769",
          "transactionIndex": "0x3",
          "logIndex": "0x2",
          "removed": false
        }
      ],
      "logsBloom": "0x00000000000000000000000000000000000000000000000000000000000000000000000000000000000400000000000000000000000000000000000000000000000000400000000000000000000000000080000000000000000000000000000000000000000000000000000000000000000000000000000000000000000000000000000200000000000000000000000000000000000000000000000000000000000000000000000000000000100000000000000000000000000000000000000000000000000000000000000000000000000000000000000000000000000000000000000000000000000000000000000000020000000000000000000000000000",
      "type": "0x2",
      "transactionHash": "0x8912d8d08a095c5715a7f14186814dd1dca2da13f07cf7740d67739183e9f769",
      "transactionIndex": "0x3",
      "blockHash": "0x86b3201a3b6e358ccaf0c28ca123f76beaee18e8d4528f90f6d4e7339bcb9623",
      "blockNumber": "0x5d016f3",
      "gasUsed": "0xc3b0",
      "effectiveGasPrice": "0x5f5e100",
      "from": "0xe1f21fe3332f1e42c46d398ff5e4f4941602051e",
      "to": "0x3f4a20335e9045f71411b04e9f53814f5b8d725d",
      "contractAddress": null,
      "gasUsedForL1": "0x42a6",
      "l1BlockNumber": "0x6c0a6a"
    }
  ],
  "libraries": [],
  "pending": [],
  "returns": {},
  "timestamp": 1731655114,
  "chain": 421614,
  "commit": "5efe942"
}