{
  "transactions": [
    {
      "hash": "0xaff20eff3257ab1253d01d9931362b3e8eb2dba2d0a9c5f6d851c55d3afcd8c5",
      "transactionType": "CALL",
      "contractName": null,
      "contractAddress": "0x3f4a20335e9045f71411b04e9f53814f5b8d725d",
      "function": "addLiquidity(address,uint128)",
      "arguments": [
        "0xEeeeeEeeeEeEeeEeEeEeeEEEeeeeEeeeeeeeEEeE",
        "5000000000000000000"
      ],
      "transaction": {
        "from": "0xe1f21fe3332f1e42c46d398ff5e4f4941602051e",
        "to": "0x3f4a20335e9045f71411b04e9f53814f5b8d725d",
        "gas": "0xbcb7",
        "value": "0x4563918244f40000",
        "input": "0xdbd7ede0000000000000000000000000eeeeeeeeeeeeeeeeeeeeeeeeeeeeeeeeeeeeeeee0000000000000000000000000000000000000000000000004563918244f40000",
        "nonce": "0xf",
        "chainId": "0x14a34"
      },
      "additionalContracts": [],
      "isFixedGasLimit": false
    }
  ],
  "receipts": [
    {
      "status": "0x1",
      "cumulativeGasUsed": "0x5cfad",
      "logs": [
        {
          "address": "0x3f4a20335e9045f71411b04e9f53814f5b8d725d",
          "topics": [
            "0xeb6f59288405a42e371d6ea5d2876f36687865f4505aaa7e58aee1bf4d094418"
          ],
          "data": "0x000000000000000000000000eeeeeeeeeeeeeeeeeeeeeeeeeeeeeeeeeeeeeeee0000000000000000000000000000000000000000000000004563918244f40000",
          "blockHash": "0x9e9f0a0430a11dee7b41b09751ea328d62a70ddecf3423b6611b2f44ab5d3d11",
          "blockNumber": "0x111cb31",
          "transactionHash": "0xaff20eff3257ab1253d01d9931362b3e8eb2dba2d0a9c5f6d851c55d3afcd8c5",
          "transactionIndex": "0x4",
          "logIndex": "0x6",
          "removed": false
        }
      ],
      "logsBloom": "0x00000000000000000000000000000000000000000000000000000000000000000000000000000000000400000000000000000000000000000000000000000000000000400000000000000000000000000080000000000000000000000000000000000000000000000000000000000000000000000000000000000000000000000000000200000000000000000000000000000000000000000000000000000000000000000000000000000000100000000000000000000000000000000000000000000000000000000000000000000000000000000000000000000000000000000000000000000000000000000000000000020000000000000000000000000000",
      "type": "0x2",
      "transactionHash": "0xaff20eff3257ab1253d01d9931362b3e8eb2dba2d0a9c5f6d851c55d3afcd8c5",
      "transactionIndex": "0x4",
      "blockHash": "0x9e9f0a0430a11dee7b41b09751ea328d62a70ddecf3423b6611b2f44ab5d3d11",
      "blockNumber": "0x111cb31",
      "gasUsed": "0x810a",
      "effectiveGasPrice": "0xe5c60",
      "blobGasUsed": "0x0",
      "from": "0xe1f21fe3332f1e42c46d398ff5e4f4941602051e",
      "to": "0x3f4a20335e9045f71411b04e9f53814f5b8d725d",
      "contractAddress": null,
      "l1BaseFeeScalar": "0x44d",
      "l1BlobBaseFee": "0x21cb84445",
      "l1BlobBaseFeeScalar": "0xa118b",
      "l1Fee": "0x8b9c92423f",
      "l1GasPrice": "0x22b25e3b",
      "l1GasUsed": "0x640"
    }
  ],
  "libraries": [],
  "pending": [],
  "returns": {},
  "timestamp": 1731654986,
  "chain": 84532,
  "commit": "5efe942"
}