{
  "transactions": [
    {
      "hash": "0x5e75837c419fbede37b0b3a95a5729e34f1bc081a452e797f07a046300e7fbf0",
      "transactionType": "CALL",
      "contractName": null,
      "contractAddress": "0x0526f93a854c6f5cfeb9fbbfc70d32fc4f46f182",
      "function": "addLiquidity(address,uint128)",
      "arguments": [
        "0xEeeeeEeeeEeEeeEeEeEeeEEEeeeeEeeeeeeeEEeE",
        "50000000000000000"
      ],
      "transaction": {
        "from": "0xe1f21fe3332f1e42c46d398ff5e4f4941602051e",
        "to": "0x0526f93a854c6f5cfeb9fbbfc70d32fc4f46f182",
        "gas": "0x12e56",
        "value": "0xb1a2bc2ec50000",
        "input": "0xdbd7ede0000000000000000000000000eeeeeeeeeeeeeeeeeeeeeeeeeeeeeeeeeeeeeeee00000000000000000000000000000000000000000000000000b1a2bc2ec50000",
        "nonce": "0x2",
        "chainId": "0x89"
      },
      "additionalContracts": [],
      "isFixedGasLimit": false
    }
  ],
  "receipts": [
    {
      "status": "0x1",
      "cumulativeGasUsed": "0xd9bb48",
      "logs": [
        {
          "address": "0x0000000000000000000000000000000000001010",
          "topics": [
            "0xe6497e3ee548a3372136af2fcb0696db31fc6cf20260707645068bd3fe97f3c4",
            "0x0000000000000000000000000000000000000000000000000000000000001010",
            "0x000000000000000000000000e1f21fe3332f1e42c46d398ff5e4f4941602051e",
            "0x0000000000000000000000000526f93a854c6f5cfeb9fbbfc70d32fc4f46f182"
          ],
          "data": "0x00000000000000000000000000000000000000000000000000b1a2bc2ec5000000000000000000000000000000000000000000000000001a04027ddb485716fe000000000000000000000000000000000000000000000000000000000000000000000000000000000000000000000000000000000000001a0350db1f199216fe00000000000000000000000000000000000000000000000000b1a2bc2ec50000",
          "blockHash": "0x0288550911ac6c8bf763abf6b40e9d27092ab792f747beafa42334072edbc0a1",
          "blockNumber": "0x3e86aa4",
          "transactionHash": "0x5e75837c419fbede37b0b3a95a5729e34f1bc081a452e797f07a046300e7fbf0",
          "transactionIndex": "0x57",
          "logIndex": "0x17b",
          "removed": false
        },
        {
          "address": "0x0526f93a854c6f5cfeb9fbbfc70d32fc4f46f182",
          "topics": [
            "0xeb6f59288405a42e371d6ea5d2876f36687865f4505aaa7e58aee1bf4d094418"
          ],
          "data": "0x000000000000000000000000eeeeeeeeeeeeeeeeeeeeeeeeeeeeeeeeeeeeeeee00000000000000000000000000000000000000000000000000b1a2bc2ec50000",
          "blockHash": "0x0288550911ac6c8bf763abf6b40e9d27092ab792f747beafa42334072edbc0a1",
          "blockNumber": "0x3e86aa4",
          "transactionHash": "0x5e75837c419fbede37b0b3a95a5729e34f1bc081a452e797f07a046300e7fbf0",
          "transactionIndex": "0x57",
          "logIndex": "0x17c",
          "removed": false
        },
        {
          "address": "0x0000000000000000000000000000000000001010",
          "topics": [
            "0x4dfe1bbbcf077ddc3e01291eea2d5c70c2b422b415d95645b9adcfd678cb1d63",
            "0x0000000000000000000000000000000000000000000000000000000000001010",
            "0x000000000000000000000000e1f21fe3332f1e42c46d398ff5e4f4941602051e",
            "0x00000000000000000000000083d69448f88bf9c701c1b93f43e1f753d39b2632"
          ],
          "data": "0x0000000000000000000000000000000000000000000000000005a3f7e652f80000000000000000000000000000000000000000000000001a040d3b67b58a3c14000000000000000000000000000000000000000000000e5b3f18a531a363481d00000000000000000000000000000000000000000000001a0407976fcf374414000000000000000000000000000000000000000000000e5b3f1e492989b6401d",
          "blockHash": "0x0288550911ac6c8bf763abf6b40e9d27092ab792f747beafa42334072edbc0a1",
          "blockNumber": "0x3e86aa4",
          "transactionHash": "0x5e75837c419fbede37b0b3a95a5729e34f1bc081a452e797f07a046300e7fbf0",
          "transactionIndex": "0x57",
          "logIndex": "0x17d",
          "removed": false
        }
      ],
      "logsBloom": "0x00000000000001020000000000000000000000000000000000000000000000000000000000002000000000100000000000008000000000000000000000000000000000400000008000000000000000800080040000000008000100000000000000000000008000000000000000000000000000000800100080000000000000000000000000000000000000000000000000000000000000000000000000000000200000000000000000000000000000000000000000000000000000000000004000000000000000000001000000000000008800000000800000108000000000000000000000000000000000000000000000020000000010000000000000100000",
      "type": "0x2",
      "transactionHash": "0x5e75837c419fbede37b0b3a95a5729e34f1bc081a452e797f07a046300e7fbf0",
      "transactionIndex": "0x57",
      "blockHash": "0x0288550911ac6c8bf763abf6b40e9d27092ab792f747beafa42334072edbc0a1",
      "blockNumber": "0x3e86aa4",
      "gasUsed": "0xceba",
      "effectiveGasPrice": "0x918274221",
      "from": "0xe1f21fe3332f1e42c46d398ff5e4f4941602051e",
      "to": "0x0526f93a854c6f5cfeb9fbbfc70d32fc4f46f182",
      "contractAddress": null
    }
  ],
  "libraries": [],
  "pending": [],
  "returns": {},
  "timestamp": 1734375884,
  "chain": 137,
  "commit": "5efe942"
}