{
  "transactions": [
    {
      "hash": "0x78fae788a2ec1919de1b175800253c2bab3ccfce31d2e5ca5fd7bf5bf41e6b3f",
      "transactionType": "CALL",
      "contractName": null,
      "contractAddress": "0x0526f93a854c6f5cfeb9fbbfc70d32fc4f46f182",
      "function": "addLiquidity(address,uint128)",
      "arguments": [
        "0xEeeeeEeeeEeEeeEeEeEeeEEEeeeeEeeeeeeeEEeE",
        "50000000000000000"
      ],
      "transaction": {
        "from": "0xe1f21fe3332f1e42c46d398ff5e4f4941602051e",
        "to": "0x0526f93a854c6f5cfeb9fbbfc70d32fc4f46f182",
        "gas": "0x2f352",
        "value": "0xb1a2bc2ec50000",
        "input": "0xdbd7ede0000000000000000000000000eeeeeeeeeeeeeeeeeeeeeeeeeeeeeeeeeeeeeeee00000000000000000000000000000000000000000000000000b1a2bc2ec50000",
        "nonce": "0x2",
        "chainId": "0xa4b1"
      },
      "additionalContracts": [],
      "isFixedGasLimit": false
    }
  ],
  "receipts": [
    {
      "status": "0x1",
      "cumulativeGasUsed": "0x12ce23",
      "logs": [
        {
          "address": "0x0526f93a854c6f5cfeb9fbbfc70d32fc4f46f182",
          "topics": [
            "0xeb6f59288405a42e371d6ea5d2876f36687865f4505aaa7e58aee1bf4d094418"
          ],
          "data": "0x000000000000000000000000eeeeeeeeeeeeeeeeeeeeeeeeeeeeeeeeeeeeeeee00000000000000000000000000000000000000000000000000b1a2bc2ec50000",
          "blockHash": "0x0171b558ee2727bc51172838abc1277bab0f1b987597a265f6dd4556d6d1f499",
          "blockNumber": "0x1103a288",
          "transactionHash": "0x78fae788a2ec1919de1b175800253c2bab3ccfce31d2e5ca5fd7bf5bf41e6b3f",
          "transactionIndex": "0x8",
          "logIndex": "0x0",
          "removed": false
        }
      ],
      "logsBloom": "0x00000000000000000000000000000000000000000000000000000000000000000000000000000000000000000000000000000000000000000000000000000000000000400000000000000000000000000080000000000000000000000000000000000000008000000000000000000000000000000000000000000000000000000000000000000000000000000000000000000000000000000000000000000000000000000000000000000000000000000000000000000000000000000000000000000000000000000000000000000000000800000000000000000000000000000000000000000000000000000000000000020000000010000000000000000000",
      "type": "0x2",
      "transactionHash": "0x78fae788a2ec1919de1b175800253c2bab3ccfce31d2e5ca5fd7bf5bf41e6b3f",
      "transactionIndex": "0x8",
      "blockHash": "0x0171b558ee2727bc51172838abc1277bab0f1b987597a265f6dd4556d6d1f499",
      "blockNumber": "0x1103a288",
      "gasUsed": "0x1bfb2",
      "effectiveGasPrice": "0x3d61228",
      "from": "0xe1f21fe3332f1e42c46d398ff5e4f4941602051e",
      "to": "0x0526f93a854c6f5cfeb9fbbfc70d32fc4f46f182",
      "contractAddress": null,
      "gasUsedForL1": "0xf0f8",
      "l1BlockNumber": "0x146cc54"
    }
  ],
  "libraries": [],
  "pending": [],
  "returns": {},
  "timestamp": 1734375766,
  "chain": 42161,
  "commit": "5efe942"
}