{
  "transactions": [
    {
      "hash": "0x9b1ad5724a6003be61a24d707fe5715457653a7f80a767e2ed2c70c0b5c1c8c9",
      "transactionType": "CALL",
      "contractName": null,
      "contractAddress": "0x0526f93a854c6f5cfeb9fbbfc70d32fc4f46f182",
      "function": "addLiquidity(address,uint128)",
      "arguments": [
        "0xEeeeeEeeeEeEeeEeEeEeeEEEeeeeEeeeeeeeEEeE",
        "50000000000000000"
      ],
      "transaction": {
        "from": "0xe1f21fe3332f1e42c46d398ff5e4f4941602051e",
        "to": "0x0526f93a854c6f5cfeb9fbbfc70d32fc4f46f182",
        "gas": "0x12e56",
        "value": "0xb1a2bc2ec50000",
        "input": "0xdbd7ede0000000000000000000000000eeeeeeeeeeeeeeeeeeeeeeeeeeeeeeeeeeeeeeee00000000000000000000000000000000000000000000000000b1a2bc2ec50000",
        "nonce": "0x2",
        "chainId": "0xa"
      },
      "additionalContracts": [],
      "isFixedGasLimit": false
    }
  ],
  "receipts": [
    {
      "status": "0x1",
      "cumulativeGasUsed": "0xa1dd8d",
      "logs": [
        {
          "address": "0x0526f93a854c6f5cfeb9fbbfc70d32fc4f46f182",
          "topics": [
            "0xeb6f59288405a42e371d6ea5d2876f36687865f4505aaa7e58aee1bf4d094418"
          ],
          "data": "0x000000000000000000000000eeeeeeeeeeeeeeeeeeeeeeeeeeeeeeeeeeeeeeee00000000000000000000000000000000000000000000000000b1a2bc2ec50000",
          "blockHash": "0x2034177298bcdf5980e8bb549c1ad59f9c8c21a49d166202092cdc019eb7c4bd",
          "blockNumber": "0x7b64ffc",
          "transactionHash": "0x9b1ad5724a6003be61a24d707fe5715457653a7f80a767e2ed2c70c0b5c1c8c9",
          "transactionIndex": "0x27",
          "logIndex": "0x8c",
          "removed": false
        }
      ],
      "logsBloom": "0x00000000000000000000000000000000000000000000000000000000000000000000000000000000000000000000000000000000000000000000000000000000000000400000000000000000000000000080000000000000000000000000000000000000008000000000000000000000000000000000000000000000000000000000000000000000000000000000000000000000000000000000000000000000000000000000000000000000000000000000000000000000000000000000000000000000000000000000000000000000000800000000000000000000000000000000000000000000000000000000000000020000000010000000000000000000",
      "type": "0x2",
      "transactionHash": "0x9b1ad5724a6003be61a24d707fe5715457653a7f80a767e2ed2c70c0b5c1c8c9",
      "transactionIndex": "0x27",
      "blockHash": "0x2034177298bcdf5980e8bb549c1ad59f9c8c21a49d166202092cdc019eb7c4bd",
      "blockNumber": "0x7b64ffc",
      "gasUsed": "0xceba",
      "effectiveGasPrice": "0xa8f3b",
      "from": "0xe1f21fe3332f1e42c46d398ff5e4f4941602051e",
      "to": "0x0526f93a854c6f5cfeb9fbbfc70d32fc4f46f182",
      "contractAddress": null,
      "l1BaseFeeScalar": "0x146b",
      "l1BlobBaseFee": "0x4d137e31b",
      "l1BlobBaseFeeScalar": "0xf79c5",
      "l1Fee": "0x2320637c457",
      "l1GasPrice": "0x8c8601eed",
      "l1GasUsed": "0x640"
    }
  ],
  "libraries": [],
  "pending": [],
  "returns": {},
  "timestamp": 1734375858,
  "chain": 10,
  "commit": "5efe942"
}