{
  "transactions": [
    {
      "hash": "0xb13f3b420ac6488e085d0412b521d26ffb3e9584a65c858756bd7efbe0b9647d",
      "transactionType": "CALL",
      "contractName": null,
      "contractAddress": "0x0526f93a854c6f5cfeb9fbbfc70d32fc4f46f182",
      "function": "addLiquidity(address,uint128)",
      "arguments": [
        "0xEeeeeEeeeEeEeeEeEeEeeEEEeeeeEeeeeeeeEEeE",
        "30000000000000000"
      ],
      "transaction": {
        "from": "0xe1f21fe3332f1e42c46d398ff5e4f4941602051e",
        "to": "0x0526f93a854c6f5cfeb9fbbfc70d32fc4f46f182",
        "gas": "0x12e56",
        "value": "0x6a94d74f430000",
        "input": "0xdbd7ede0000000000000000000000000eeeeeeeeeeeeeeeeeeeeeeeeeeeeeeeeeeeeeeee000000000000000000000000000000000000000000000000006a94d74f430000",
        "nonce": "0x2",
        "chainId": "0x1"
      },
      "additionalContracts": [],
      "isFixedGasLimit": false
    }
  ],
  "receipts": [
    {
      "status": "0x1",
      "cumulativeGasUsed": "0x878445",
      "logs": [
        {
          "address": "0x0526f93a854c6f5cfeb9fbbfc70d32fc4f46f182",
          "topics": [
            "0xeb6f59288405a42e371d6ea5d2876f36687865f4505aaa7e58aee1bf4d094418"
          ],
          "data": "0x000000000000000000000000eeeeeeeeeeeeeeeeeeeeeeeeeeeeeeeeeeeeeeee000000000000000000000000000000000000000000000000006a94d74f430000",
          "blockHash": "0x888ba8a5bff344fa9257d3abcc34a0f7f05c63a1b0b8317028de1a5bb96a859f",
          "blockNumber": "0x148f9c4",
          "transactionHash": "0xb13f3b420ac6488e085d0412b521d26ffb3e9584a65c858756bd7efbe0b9647d",
          "transactionIndex": "0x69",
          "logIndex": "0x117",
          "removed": false
        }
      ],
      "logsBloom": "0x00000000000000000000000000000000000000000000000000000000000000000000000000000000000000000000000000000000000000000000000000000000000000400000000000000000000000000080000000000000000000000000000000000000008000000000000000000000000000000000000000000000000000000000000000000000000000000000000000000000000000000000000000000000000000000000000000000000000000000000000000000000000000000000000000000000000000000000000000000000000800000000000000000000000000000000000000000000000000000000000000020000000010000000000000000000",
      "type": "0x2",
      "transactionHash": "0xb13f3b420ac6488e085d0412b521d26ffb3e9584a65c858756bd7efbe0b9647d",
      "transactionIndex": "0x69",
      "blockHash": "0x888ba8a5bff344fa9257d3abcc34a0f7f05c63a1b0b8317028de1a5bb96a859f",
      "blockNumber": "0x148f9c4",
      "gasUsed": "0xceba",
      "effectiveGasPrice": "0x28264b833",
      "from": "0xe1f21fe3332f1e42c46d398ff5e4f4941602051e",
      "to": "0x0526f93a854c6f5cfeb9fbbfc70d32fc4f46f182",
      "contractAddress": null
    }
  ],
  "libraries": [],
  "pending": [],
  "returns": {},
  "timestamp": 1736097842,
  "chain": 1,
  "commit": "5efe942"
}